{
  "_format": "hh3-artifact-1",
  "contractName": "MockZyFAI",
  "sourceName": "contracts/mocks/MockZyFAI.sol",
  "abi": [
    {
      "inputs": [
        {
          "internalType": "address",
          "name": "_weth",
          "type": "address"
        }
      ],
      "stateMutability": "nonpayable",
      "type": "constructor"
    },
    {
      "inputs": [
        {
          "internalType": "address",
          "name": "token",
          "type": "address"
        }
      ],
      "name": "SafeERC20FailedOperation",
      "type": "error"
    },
    {
      "inputs": [
        {
          "internalType": "address",
          "name": "account",
          "type": "address"
        }
      ],
      "name": "balanceOf",
      "outputs": [
        {
          "internalType": "uint256",
          "name": "",
          "type": "uint256"
        }
      ],
      "stateMutability": "view",
      "type": "function"
    },
    {
      "inputs": [
        {
          "internalType": "uint256",
          "name": "",
          "type": "uint256"
        },
        {
          "internalType": "address",
          "name": "controller",
          "type": "address"
        }
      ],
      "name": "claimableRedeemRequest",
      "outputs": [
        {
          "internalType": "uint256",
          "name": "",
          "type": "uint256"
        }
      ],
      "stateMutability": "view",
      "type": "function"
    },
    {
      "inputs": [
        {
          "internalType": "address",
          "name": "",
          "type": "address"
        }
      ],
      "name": "claimableShares",
      "outputs": [
        {
          "internalType": "uint256",
          "name": "",
          "type": "uint256"
        }
      ],
      "stateMutability": "view",
      "type": "function"
    },
    {
      "inputs": [
        {
          "internalType": "uint256",
          "name": "shares",
          "type": "uint256"
        }
      ],
      "name": "convertToAssets",
      "outputs": [
        {
          "internalType": "uint256",
          "name": "",
          "type": "uint256"
        }
      ],
      "stateMutability": "view",
      "type": "function"
    },
    {
      "inputs": [
        {
          "internalType": "uint256",
          "name": "assets",
          "type": "uint256"
        }
      ],
      "name": "convertToShares",
      "outputs": [
        {
          "internalType": "uint256",
          "name": "",
          "type": "uint256"
        }
      ],
      "stateMutability": "view",
      "type": "function"
    },
    {
      "inputs": [
        {
          "internalType": "uint256",
          "name": "assets",
          "type": "uint256"
        },
        {
          "internalType": "address",
          "name": "receiver",
          "type": "address"
        }
      ],
      "name": "deposit",
      "outputs": [
        {
          "internalType": "uint256",
          "name": "shares",
          "type": "uint256"
        }
      ],
      "stateMutability": "nonpayable",
      "type": "function"
    },
    {
      "inputs": [
        {
          "internalType": "address",
          "name": "controller",
          "type": "address"
        }
      ],
      "name": "fulfillAll",
      "outputs": [],
      "stateMutability": "nonpayable",
      "type": "function"
    },
    {
      "inputs": [
        {
          "internalType": "uint256",
          "name": "",
          "type": "uint256"
        },
        {
          "internalType": "address",
          "name": "controller",
          "type": "address"
        }
      ],
      "name": "pendingRedeemRequest",
      "outputs": [
        {
          "internalType": "uint256",
          "name": "",
          "type": "uint256"
        }
      ],
      "stateMutability": "view",
      "type": "function"
    },
    {
      "inputs": [
        {
          "internalType": "address",
          "name": "",
          "type": "address"
        }
      ],
      "name": "pendingShares",
      "outputs": [
        {
          "internalType": "uint256",
          "name": "",
          "type": "uint256"
        }
      ],
      "stateMutability": "view",
      "type": "function"
    },
    {
      "inputs": [
        {
          "internalType": "uint256",
          "name": "shares",
          "type": "uint256"
        },
        {
          "internalType": "address",
          "name": "receiver",
          "type": "address"
        },
        {
          "internalType": "address",
          "name": "controller",
          "type": "address"
        }
      ],
      "name": "redeem",
      "outputs": [
        {
          "internalType": "uint256",
          "name": "assets",
          "type": "uint256"
        }
      ],
      "stateMutability": "nonpayable",
      "type": "function"
    },
    {
      "inputs": [
        {
          "internalType": "uint256",
          "name": "shares",
          "type": "uint256"
        },
        {
          "internalType": "address",
          "name": "controller",
          "type": "address"
        },
        {
          "internalType": "address",
          "name": "owner",
          "type": "address"
        }
      ],
      "name": "requestRedeem",
      "outputs": [
        {
          "internalType": "uint256",
          "name": "requestId",
          "type": "uint256"
        }
      ],
      "stateMutability": "nonpayable",
      "type": "function"
    },
    {
      "inputs": [
        {
          "internalType": "uint256",
          "name": "wethAmount",
          "type": "uint256"
        }
      ],
      "name": "simulateYield",
      "outputs": [],
      "stateMutability": "nonpayable",
      "type": "function"
    },
    {
      "inputs": [],
      "name": "totalAssets",
      "outputs": [
        {
          "internalType": "uint256",
          "name": "",
          "type": "uint256"
        }
      ],
      "stateMutability": "view",
      "type": "function"
    },
    {
      "inputs": [],
      "name": "weth",
      "outputs": [
        {
          "internalType": "contract IERC20",
          "name": "",
          "type": "address"
        }
      ],
      "stateMutability": "view",
      "type": "function"
    }
  ],
  "bytecode": "0x60a060405234801561000f575f5ffd5b50604051610ab6380380610ab683398101604081905261002e9161003f565b6001600160a01b031660805261006c565b5f6020828403121561004f575f5ffd5b81516001600160a01b0381168114610065575f5ffd5b9392505050565b608051610a086100ae5f395f818161013b0152818161029b01528181610337015281816103db0152818161063301528181610682015261072d0152610a085ff3fe608060405234801561000f575f5ffd5b50600436106100e5575f3560e01c80637d41c86e11610088578063c6e6f59211610063578063c6e6f5921461020a578063e7ca856d1461021d578063eaed1d0714610230578063f5a23d8d1461025a575f5ffd5b80637d41c86e146101cf578063880ccae7146101e2578063ba087652146101f7575f5ffd5b80633fc8cef3116100c35780633fc8cef3146101365780634f5ad9c5146101755780636e553f651461019457806370a08231146101a7575f5ffd5b806301e1d114146100e957806307a2d13a146101045780632d9d533614610117575b5f5ffd5b6100f1610284565b6040519081526020015b60405180910390f35b6100f161011236600461089d565b610311565b6100f16101253660046108cf565b60026020525f908152604090205481565b61015d7f000000000000000000000000000000000000000000000000000000000000000081565b6040516001600160a01b0390911681526020016100fb565b6100f16101833660046108cf565b60036020525f908152604090205481565b6100f16101a23660046108e8565b6103c2565b6100f16101b53660046108cf565b6001600160a01b03165f9081526020819052604090205490565b6100f16101dd366004610912565b61044e565b6101f56101f03660046108cf565b610533565b005b6100f1610205366004610912565b610584565b6100f161021836600461089d565b610661565b6101f561022b36600461089d565b610720565b6100f161023e3660046108e8565b6001600160a01b03165f90815260036020526040902054919050565b6100f16102683660046108e8565b6001600160a01b03165f90815260026020526040902054919050565b6040516370a0823160e01b81523060048201525f907f00000000000000000000000000000000000000000000000000000000000000006001600160a01b0316906370a0823190602401602060405180830381865afa1580156102e8573d5f5f3e3d5ffd5b505050506040513d601f19601f8201168201806040525081019061030c919061094b565b905090565b5f6001545f0361031f575090565b6001546040516370a0823160e01b81523060048201527f00000000000000000000000000000000000000000000000000000000000000006001600160a01b0316906370a0823190602401602060405180830381865afa158015610384573d5f5f3e3d5ffd5b505050506040513d601f19601f820116820180604052508101906103a8919061094b565b6103b29084610976565b6103bc919061098d565b92915050565b5f6103cc83610661565b90506104036001600160a01b037f000000000000000000000000000000000000000000000000000000000000000016333086610758565b6001600160a01b0382165f908152602081905260408120805483929061042a9084906109ac565b925050819055508060015f82825461044291906109ac565b90915550909392505050565b6001600160a01b0381165f908152602081905260408120548411156104ba5760405162461bcd60e51b815260206004820152601e60248201527f4d6f636b5a794641493a20696e73756666696369656e7420736861726573000060448201526064015b60405180910390fd5b6001600160a01b0382165f90815260208190526040812080548692906104e19084906109bf565b925050819055508360015f8282546104f991906109bf565b90915550506001600160a01b0383165f90815260026020526040812080548692906105259084906109ac565b909155505f95945050505050565b6001600160a01b0381165f90815260026020908152604080832054600390925282208054919290916105669084906109ac565b90915550506001600160a01b03165f90815260026020526040812055565b6001600160a01b0381165f908152600360205260408120548411156105eb5760405162461bcd60e51b815260206004820152601860248201527f4d6f636b5a794641493a206e6f7420636c61696d61626c65000000000000000060448201526064016104b1565b6105f484610311565b6001600160a01b0383165f908152600360205260408120805492935086929091906106209084906109bf565b9091555061065a90506001600160a01b037f0000000000000000000000000000000000000000000000000000000000000000168483610794565b9392505050565b6040516370a0823160e01b81523060048201525f9081906001600160a01b037f000000000000000000000000000000000000000000000000000000000000000016906370a0823190602401602060405180830381865afa1580156106c7573d5f5f3e3d5ffd5b505050506040513d601f19601f820116820180604052508101906106eb919061094b565b90506001545f14806106fb575080155b15610707575090919050565b80600154846107169190610976565b61065a919061098d565b6107556001600160a01b037f000000000000000000000000000000000000000000000000000000000000000016333084610758565b50565b6107668484848460016107ce565b61078e57604051635274afe760e01b81526001600160a01b03851660048201526024016104b1565b50505050565b6107a1838383600161083b565b6107c957604051635274afe760e01b81526001600160a01b03841660048201526024016104b1565b505050565b6040516323b872dd60e01b5f8181526001600160a01b038781166004528616602452604485905291602083606481808c5af1925060015f5114831661082a57838315161561081e573d5f823e3d81fd5b5f883b113d1516831692505b604052505f60605295945050505050565b60405163a9059cbb60e01b5f8181526001600160a01b038616600452602485905291602083604481808b5af1925060015f51148316610891578383151615610885573d5f823e3d81fd5b5f873b113d1516831692505b60405250949350505050565b5f602082840312156108ad575f5ffd5b5035919050565b80356001600160a01b03811681146108ca575f5ffd5b919050565b5f602082840312156108df575f5ffd5b61065a826108b4565b5f5f604083850312156108f9575f5ffd5b82359150610909602084016108b4565b90509250929050565b5f5f5f60608486031215610924575f5ffd5b83359250610934602085016108b4565b9150610942604085016108b4565b90509250925092565b5f6020828403121561095b575f5ffd5b5051919050565b634e487b7160e01b5f52601160045260245ffd5b80820281158282048414176103bc576103bc610962565b5f826109a757634e487b7160e01b5f52601260045260245ffd5b500490565b808201808211156103bc576103bc610962565b818103818111156103bc576103bc61096256fea2646970667358221220be4696d0e8d51b8dc219eed17ea5d8d1167cad1af7848043a6be5b0fe12842ec64736f6c634300081c0033",
  "linkReferences": {},
  "deployedLinkReferences": {},
  "immutableReferences": {
    "740": [
      {
        "length": 32,
        "start": 315
      },
      {
        "length": 32,
        "start": 667
      },
      {
        "length": 32,
        "start": 823
      },
      {
        "length": 32,
        "start": 987
      },
      {
        "length": 32,
        "start": 1587
      },
      {
        "length": 32,
        "start": 1666
      },
      {
        "length": 32,
        "start": 1837
      }
    ]
  },
  "inputSourceName": "project/contracts/mocks/MockZyFAI.sol",
  "buildInfoId": "solc-0_8_28-18ed180cc1d3df3c15596500e6c7d2ce3df982b4"
}