{
  "_format": "hh3-artifact-1",
  "contractName": "LSE",
  "sourceName": "contracts/LSE.sol",
  "abi": [
    {
      "inputs": [
        {
          "internalType": "contract IWETH",
          "name": "_weth",
          "type": "address"
        },
        {
          "internalType": "contract IZyFAI",
          "name": "_zyFAI",
          "type": "address"
        }
      ],
      "stateMutability": "nonpayable",
      "type": "constructor"
    },
    {
      "inputs": [],
      "name": "AlreadyClaimed",
      "type": "error"
    },
    {
      "inputs": [
        {
          "internalType": "address",
          "name": "spender",
          "type": "address"
        },
        {
          "internalType": "uint256",
          "name": "allowance",
          "type": "uint256"
        },
        {
          "internalType": "uint256",
          "name": "needed",
          "type": "uint256"
        }
      ],
      "name": "ERC20InsufficientAllowance",
      "type": "error"
    },
    {
      "inputs": [
        {
          "internalType": "address",
          "name": "sender",
          "type": "address"
        },
        {
          "internalType": "uint256",
          "name": "balance",
          "type": "uint256"
        },
        {
          "internalType": "uint256",
          "name": "needed",
          "type": "uint256"
        }
      ],
      "name": "ERC20InsufficientBalance",
      "type": "error"
    },
    {
      "inputs": [
        {
          "internalType": "address",
          "name": "approver",
          "type": "address"
        }
      ],
      "name": "ERC20InvalidApprover",
      "type": "error"
    },
    {
      "inputs": [
        {
          "internalType": "address",
          "name": "receiver",
          "type": "address"
        }
      ],
      "name": "ERC20InvalidReceiver",
      "type": "error"
    },
    {
      "inputs": [
        {
          "internalType": "address",
          "name": "sender",
          "type": "address"
        }
      ],
      "name": "ERC20InvalidSender",
      "type": "error"
    },
    {
      "inputs": [
        {
          "internalType": "address",
          "name": "spender",
          "type": "address"
        }
      ],
      "name": "ERC20InvalidSpender",
      "type": "error"
    },
    {
      "inputs": [
        {
          "internalType": "address",
          "name": "receiver",
          "type": "address"
        },
        {
          "internalType": "uint256",
          "name": "assets",
          "type": "uint256"
        },
        {
          "internalType": "uint256",
          "name": "max",
          "type": "uint256"
        }
      ],
      "name": "ERC4626ExceededMaxDeposit",
      "type": "error"
    },
    {
      "inputs": [
        {
          "internalType": "address",
          "name": "receiver",
          "type": "address"
        },
        {
          "internalType": "uint256",
          "name": "shares",
          "type": "uint256"
        },
        {
          "internalType": "uint256",
          "name": "max",
          "type": "uint256"
        }
      ],
      "name": "ERC4626ExceededMaxMint",
      "type": "error"
    },
    {
      "inputs": [
        {
          "internalType": "address",
          "name": "owner",
          "type": "address"
        },
        {
          "internalType": "uint256",
          "name": "shares",
          "type": "uint256"
        },
        {
          "internalType": "uint256",
          "name": "max",
          "type": "uint256"
        }
      ],
      "name": "ERC4626ExceededMaxRedeem",
      "type": "error"
    },
    {
      "inputs": [
        {
          "internalType": "address",
          "name": "owner",
          "type": "address"
        },
        {
          "internalType": "uint256",
          "name": "assets",
          "type": "uint256"
        },
        {
          "internalType": "uint256",
          "name": "max",
          "type": "uint256"
        }
      ],
      "name": "ERC4626ExceededMaxWithdraw",
      "type": "error"
    },
    {
      "inputs": [],
      "name": "NotAuthorized",
      "type": "error"
    },
    {
      "inputs": [],
      "name": "NotClaimableYet",
      "type": "error"
    },
    {
      "inputs": [
        {
          "internalType": "address",
          "name": "owner",
          "type": "address"
        }
      ],
      "name": "OwnableInvalidOwner",
      "type": "error"
    },
    {
      "inputs": [
        {
          "internalType": "address",
          "name": "account",
          "type": "address"
        }
      ],
      "name": "OwnableUnauthorizedAccount",
      "type": "error"
    },
    {
      "inputs": [
        {
          "internalType": "address",
          "name": "token",
          "type": "address"
        }
      ],
      "name": "SafeERC20FailedOperation",
      "type": "error"
    },
    {
      "inputs": [],
      "name": "UseDeposit",
      "type": "error"
    },
    {
      "inputs": [],
      "name": "UseRequestRedeem",
      "type": "error"
    },
    {
      "inputs": [],
      "name": "ZeroAmount",
      "type": "error"
    },
    {
      "anonymous": false,
      "inputs": [
        {
          "indexed": true,
          "internalType": "address",
          "name": "owner",
          "type": "address"
        },
        {
          "indexed": true,
          "internalType": "address",
          "name": "spender",
          "type": "address"
        },
        {
          "indexed": false,
          "internalType": "uint256",
          "name": "value",
          "type": "uint256"
        }
      ],
      "name": "Approval",
      "type": "event"
    },
    {
      "anonymous": false,
      "inputs": [
        {
          "indexed": true,
          "internalType": "address",
          "name": "sender",
          "type": "address"
        },
        {
          "indexed": true,
          "internalType": "address",
          "name": "owner",
          "type": "address"
        },
        {
          "indexed": false,
          "internalType": "uint256",
          "name": "assets",
          "type": "uint256"
        },
        {
          "indexed": false,
          "internalType": "uint256",
          "name": "shares",
          "type": "uint256"
        }
      ],
      "name": "Deposit",
      "type": "event"
    },
    {
      "anonymous": false,
      "inputs": [
        {
          "indexed": true,
          "internalType": "address",
          "name": "controller",
          "type": "address"
        },
        {
          "indexed": true,
          "internalType": "address",
          "name": "operator",
          "type": "address"
        },
        {
          "indexed": false,
          "internalType": "bool",
          "name": "approved",
          "type": "bool"
        }
      ],
      "name": "OperatorSet",
      "type": "event"
    },
    {
      "anonymous": false,
      "inputs": [
        {
          "indexed": true,
          "internalType": "address",
          "name": "previousOwner",
          "type": "address"
        },
        {
          "indexed": true,
          "internalType": "address",
          "name": "newOwner",
          "type": "address"
        }
      ],
      "name": "OwnershipTransferred",
      "type": "event"
    },
    {
      "anonymous": false,
      "inputs": [
        {
          "indexed": true,
          "internalType": "address",
          "name": "controller",
          "type": "address"
        },
        {
          "indexed": true,
          "internalType": "address",
          "name": "owner",
          "type": "address"
        },
        {
          "indexed": true,
          "internalType": "uint256",
          "name": "requestId",
          "type": "uint256"
        },
        {
          "indexed": false,
          "internalType": "address",
          "name": "sender",
          "type": "address"
        },
        {
          "indexed": false,
          "internalType": "uint256",
          "name": "shares",
          "type": "uint256"
        }
      ],
      "name": "RedeemRequest",
      "type": "event"
    },
    {
      "anonymous": false,
      "inputs": [
        {
          "indexed": true,
          "internalType": "address",
          "name": "from",
          "type": "address"
        },
        {
          "indexed": true,
          "internalType": "address",
          "name": "to",
          "type": "address"
        },
        {
          "indexed": false,
          "internalType": "uint256",
          "name": "value",
          "type": "uint256"
        }
      ],
      "name": "Transfer",
      "type": "event"
    },
    {
      "anonymous": false,
      "inputs": [
        {
          "indexed": true,
          "internalType": "address",
          "name": "sender",
          "type": "address"
        },
        {
          "indexed": true,
          "internalType": "address",
          "name": "receiver",
          "type": "address"
        },
        {
          "indexed": true,
          "internalType": "address",
          "name": "owner",
          "type": "address"
        },
        {
          "indexed": false,
          "internalType": "uint256",
          "name": "assets",
          "type": "uint256"
        },
        {
          "indexed": false,
          "internalType": "uint256",
          "name": "shares",
          "type": "uint256"
        }
      ],
      "name": "Withdraw",
      "type": "event"
    },
    {
      "inputs": [
        {
          "internalType": "address",
          "name": "owner",
          "type": "address"
        },
        {
          "internalType": "address",
          "name": "spender",
          "type": "address"
        }
      ],
      "name": "allowance",
      "outputs": [
        {
          "internalType": "uint256",
          "name": "",
          "type": "uint256"
        }
      ],
      "stateMutability": "view",
      "type": "function"
    },
    {
      "inputs": [
        {
          "internalType": "address",
          "name": "spender",
          "type": "address"
        },
        {
          "internalType": "uint256",
          "name": "value",
          "type": "uint256"
        }
      ],
      "name": "approve",
      "outputs": [
        {
          "internalType": "bool",
          "name": "",
          "type": "bool"
        }
      ],
      "stateMutability": "nonpayable",
      "type": "function"
    },
    {
      "inputs": [],
      "name": "asset",
      "outputs": [
        {
          "internalType": "address",
          "name": "",
          "type": "address"
        }
      ],
      "stateMutability": "view",
      "type": "function"
    },
    {
      "inputs": [
        {
          "internalType": "address",
          "name": "account",
          "type": "address"
        }
      ],
      "name": "balanceOf",
      "outputs": [
        {
          "internalType": "uint256",
          "name": "",
          "type": "uint256"
        }
      ],
      "stateMutability": "view",
      "type": "function"
    },
    {
      "inputs": [
        {
          "internalType": "uint256",
          "name": "requestId",
          "type": "uint256"
        },
        {
          "internalType": "address",
          "name": "receiver",
          "type": "address"
        }
      ],
      "name": "claim",
      "outputs": [
        {
          "internalType": "uint256",
          "name": "wethReceived",
          "type": "uint256"
        }
      ],
      "stateMutability": "nonpayable",
      "type": "function"
    },
    {
      "inputs": [
        {
          "internalType": "uint256",
          "name": "shares",
          "type": "uint256"
        }
      ],
      "name": "convertToAssets",
      "outputs": [
        {
          "internalType": "uint256",
          "name": "",
          "type": "uint256"
        }
      ],
      "stateMutability": "view",
      "type": "function"
    },
    {
      "inputs": [
        {
          "internalType": "uint256",
          "name": "assets",
          "type": "uint256"
        }
      ],
      "name": "convertToShares",
      "outputs": [
        {
          "internalType": "uint256",
          "name": "",
          "type": "uint256"
        }
      ],
      "stateMutability": "view",
      "type": "function"
    },
    {
      "inputs": [],
      "name": "decimals",
      "outputs": [
        {
          "internalType": "uint8",
          "name": "",
          "type": "uint8"
        }
      ],
      "stateMutability": "view",
      "type": "function"
    },
    {
      "inputs": [
        {
          "internalType": "uint256",
          "name": "assets",
          "type": "uint256"
        },
        {
          "internalType": "address",
          "name": "receiver",
          "type": "address"
        }
      ],
      "name": "deposit",
      "outputs": [
        {
          "internalType": "uint256",
          "name": "shares",
          "type": "uint256"
        }
      ],
      "stateMutability": "nonpayable",
      "type": "function"
    },
    {
      "inputs": [
        {
          "internalType": "address",
          "name": "receiver",
          "type": "address"
        }
      ],
      "name": "depositETH",
      "outputs": [
        {
          "internalType": "uint256",
          "name": "shares",
          "type": "uint256"
        }
      ],
      "stateMutability": "payable",
      "type": "function"
    },
    {
      "inputs": [
        {
          "internalType": "address",
          "name": "controller",
          "type": "address"
        },
        {
          "internalType": "address",
          "name": "operator",
          "type": "address"
        }
      ],
      "name": "isOperator",
      "outputs": [
        {
          "internalType": "bool",
          "name": "",
          "type": "bool"
        }
      ],
      "stateMutability": "view",
      "type": "function"
    },
    {
      "inputs": [
        {
          "internalType": "address",
          "name": "",
          "type": "address"
        }
      ],
      "name": "maxDeposit",
      "outputs": [
        {
          "internalType": "uint256",
          "name": "",
          "type": "uint256"
        }
      ],
      "stateMutability": "view",
      "type": "function"
    },
    {
      "inputs": [
        {
          "internalType": "address",
          "name": "",
          "type": "address"
        }
      ],
      "name": "maxMint",
      "outputs": [
        {
          "internalType": "uint256",
          "name": "",
          "type": "uint256"
        }
      ],
      "stateMutability": "view",
      "type": "function"
    },
    {
      "inputs": [
        {
          "internalType": "address",
          "name": "owner",
          "type": "address"
        }
      ],
      "name": "maxRedeem",
      "outputs": [
        {
          "internalType": "uint256",
          "name": "",
          "type": "uint256"
        }
      ],
      "stateMutability": "view",
      "type": "function"
    },
    {
      "inputs": [
        {
          "internalType": "address",
          "name": "owner",
          "type": "address"
        }
      ],
      "name": "maxWithdraw",
      "outputs": [
        {
          "internalType": "uint256",
          "name": "",
          "type": "uint256"
        }
      ],
      "stateMutability": "view",
      "type": "function"
    },
    {
      "inputs": [
        {
          "internalType": "uint256",
          "name": "",
          "type": "uint256"
        },
        {
          "internalType": "address",
          "name": "",
          "type": "address"
        }
      ],
      "name": "mint",
      "outputs": [
        {
          "internalType": "uint256",
          "name": "",
          "type": "uint256"
        }
      ],
      "stateMutability": "pure",
      "type": "function"
    },
    {
      "inputs": [],
      "name": "name",
      "outputs": [
        {
          "internalType": "string",
          "name": "",
          "type": "string"
        }
      ],
      "stateMutability": "view",
      "type": "function"
    },
    {
      "inputs": [],
      "name": "owner",
      "outputs": [
        {
          "internalType": "address",
          "name": "",
          "type": "address"
        }
      ],
      "stateMutability": "view",
      "type": "function"
    },
    {
      "inputs": [
        {
          "internalType": "uint256",
          "name": "requestId",
          "type": "uint256"
        }
      ],
      "name": "pendingRedeems",
      "outputs": [
        {
          "internalType": "address",
          "name": "controller",
          "type": "address"
        },
        {
          "internalType": "uint256",
          "name": "zyFaiShares",
          "type": "uint256"
        },
        {
          "internalType": "bool",
          "name": "claimed",
          "type": "bool"
        }
      ],
      "stateMutability": "view",
      "type": "function"
    },
    {
      "inputs": [
        {
          "internalType": "uint256",
          "name": "assets",
          "type": "uint256"
        }
      ],
      "name": "previewDeposit",
      "outputs": [
        {
          "internalType": "uint256",
          "name": "",
          "type": "uint256"
        }
      ],
      "stateMutability": "view",
      "type": "function"
    },
    {
      "inputs": [
        {
          "internalType": "uint256",
          "name": "shares",
          "type": "uint256"
        }
      ],
      "name": "previewMint",
      "outputs": [
        {
          "internalType": "uint256",
          "name": "",
          "type": "uint256"
        }
      ],
      "stateMutability": "view",
      "type": "function"
    },
    {
      "inputs": [
        {
          "internalType": "uint256",
          "name": "",
          "type": "uint256"
        }
      ],
      "name": "previewRedeem",
      "outputs": [
        {
          "internalType": "uint256",
          "name": "",
          "type": "uint256"
        }
      ],
      "stateMutability": "pure",
      "type": "function"
    },
    {
      "inputs": [
        {
          "internalType": "uint256",
          "name": "",
          "type": "uint256"
        }
      ],
      "name": "previewWithdraw",
      "outputs": [
        {
          "internalType": "uint256",
          "name": "",
          "type": "uint256"
        }
      ],
      "stateMutability": "pure",
      "type": "function"
    },
    {
      "inputs": [
        {
          "internalType": "uint256",
          "name": "",
          "type": "uint256"
        },
        {
          "internalType": "address",
          "name": "",
          "type": "address"
        },
        {
          "internalType": "address",
          "name": "",
          "type": "address"
        }
      ],
      "name": "redeem",
      "outputs": [
        {
          "internalType": "uint256",
          "name": "",
          "type": "uint256"
        }
      ],
      "stateMutability": "pure",
      "type": "function"
    },
    {
      "inputs": [],
      "name": "renounceOwnership",
      "outputs": [],
      "stateMutability": "nonpayable",
      "type": "function"
    },
    {
      "inputs": [
        {
          "internalType": "uint256",
          "name": "shares",
          "type": "uint256"
        },
        {
          "internalType": "address",
          "name": "controller",
          "type": "address"
        },
        {
          "internalType": "address",
          "name": "owner",
          "type": "address"
        }
      ],
      "name": "requestRedeem",
      "outputs": [
        {
          "internalType": "uint256",
          "name": "requestId",
          "type": "uint256"
        }
      ],
      "stateMutability": "nonpayable",
      "type": "function"
    },
    {
      "inputs": [
        {
          "internalType": "address",
          "name": "operator",
          "type": "address"
        },
        {
          "internalType": "bool",
          "name": "approved",
          "type": "bool"
        }
      ],
      "name": "setOperator",
      "outputs": [
        {
          "internalType": "bool",
          "name": "",
          "type": "bool"
        }
      ],
      "stateMutability": "nonpayable",
      "type": "function"
    },
    {
      "inputs": [
        {
          "internalType": "bytes4",
          "name": "interfaceId",
          "type": "bytes4"
        }
      ],
      "name": "supportsInterface",
      "outputs": [
        {
          "internalType": "bool",
          "name": "",
          "type": "bool"
        }
      ],
      "stateMutability": "pure",
      "type": "function"
    },
    {
      "inputs": [],
      "name": "symbol",
      "outputs": [
        {
          "internalType": "string",
          "name": "",
          "type": "string"
        }
      ],
      "stateMutability": "view",
      "type": "function"
    },
    {
      "inputs": [],
      "name": "totalAssets",
      "outputs": [
        {
          "internalType": "uint256",
          "name": "",
          "type": "uint256"
        }
      ],
      "stateMutability": "view",
      "type": "function"
    },
    {
      "inputs": [],
      "name": "totalSupply",
      "outputs": [
        {
          "internalType": "uint256",
          "name": "",
          "type": "uint256"
        }
      ],
      "stateMutability": "view",
      "type": "function"
    },
    {
      "inputs": [
        {
          "internalType": "address",
          "name": "to",
          "type": "address"
        },
        {
          "internalType": "uint256",
          "name": "value",
          "type": "uint256"
        }
      ],
      "name": "transfer",
      "outputs": [
        {
          "internalType": "bool",
          "name": "",
          "type": "bool"
        }
      ],
      "stateMutability": "nonpayable",
      "type": "function"
    },
    {
      "inputs": [
        {
          "internalType": "address",
          "name": "from",
          "type": "address"
        },
        {
          "internalType": "address",
          "name": "to",
          "type": "address"
        },
        {
          "internalType": "uint256",
          "name": "value",
          "type": "uint256"
        }
      ],
      "name": "transferFrom",
      "outputs": [
        {
          "internalType": "bool",
          "name": "",
          "type": "bool"
        }
      ],
      "stateMutability": "nonpayable",
      "type": "function"
    },
    {
      "inputs": [
        {
          "internalType": "address",
          "name": "newOwner",
          "type": "address"
        }
      ],
      "name": "transferOwnership",
      "outputs": [],
      "stateMutability": "nonpayable",
      "type": "function"
    },
    {
      "inputs": [],
      "name": "weth",
      "outputs": [
        {
          "internalType": "contract IWETH",
          "name": "",
          "type": "address"
        }
      ],
      "stateMutability": "view",
      "type": "function"
    },
    {
      "inputs": [
        {
          "internalType": "uint256",
          "name": "",
          "type": "uint256"
        },
        {
          "internalType": "address",
          "name": "",
          "type": "address"
        },
        {
          "internalType": "address",
          "name": "",
          "type": "address"
        }
      ],
      "name": "withdraw",
      "outputs": [
        {
          "internalType": "uint256",
          "name": "",
          "type": "uint256"
        }
      ],
      "stateMutability": "pure",
      "type": "function"
    },
    {
      "inputs": [],
      "name": "zyFAI",
      "outputs": [
        {
          "internalType": "contract IZyFAI",
          "name": "",
          "type": "address"
        }
      ],
      "stateMutability": "view",
      "type": "function"
    }
  ],
  "bytecode": "0x6101006040526001600755348015610015575f5ffd5b5060405161211b38038061211b83398101604081905261003491610327565b33826040518060400160405280601081526020016f098d2e2ead2c840a6e8dec6d6408aa8960831b815250604051806040016040528060038152602001624c534560e81b815250816003908161008a91906103f6565b50600461009782826103f6565b5050505f5f6100ab8361012c60201b60201c565b91509150816100bb5760126100bd565b805b60ff1660a05250506001600160a01b0390811660805281166100f957604051631e4fbdf760e01b81525f60048201526024015b60405180910390fd5b610102816101bd565b506001600160a01b0380831660e081905290821660c05261012590825f1961020e565b50506104b0565b5f808061013860405190565b6040805160048152602481019091526020810180516001600160e01b0390811663313ce56760e01b179091529192505f9182916101789188919061028d16565b50909250905061018783604052565b818015610195575060203d10155b80156101a2575060ff8111155b6101ad575f5f6101b1565b6001815b94509450505050915091565b600580546001600160a01b038381166001600160a01b0319831681179093556040519116919082907f8be0079c531659141344cd1fd0a4f28419497f9722a3daafe3b4186f6b6457e0905f90a35050565b61021a8383835f6102ae565b6102885761022b83835f60016102ae565b61025357604051635274afe760e01b81526001600160a01b03841660048201526024016100f0565b61026083838360016102ae565b61028857604051635274afe760e01b81526001600160a01b03841660048201526024016100f0565b505050565b5f5f5f60405f855160208701885afa92505f51915060205190509250925092565b60405163095ea7b360e01b5f8181526001600160a01b038616600452602485905291602083604481808b5af1925060015f511483166103045783831516156102f8573d5f823e3d81fd5b5f873b113d1516831692505b60405250949350505050565b6001600160a01b0381168114610324575f5ffd5b50565b5f5f60408385031215610338575f5ffd5b825161034381610310565b602084015190925061035481610310565b809150509250929050565b634e487b7160e01b5f52604160045260245ffd5b600181811c9082168061038757607f821691505b6020821081036103a557634e487b7160e01b5f52602260045260245ffd5b50919050565b601f82111561028857805f5260205f20601f840160051c810160208510156103d05750805b601f840160051c820191505b818110156103ef575f81556001016103dc565b5050505050565b81516001600160401b0381111561040f5761040f61035f565b6104238161041d8454610373565b846103ab565b6020601f821160018114610455575f831561043e5750848201515b5f19600385901b1c1916600184901b1784556103ef565b5f84815260208120601f198516915b828110156104845787850151825560209485019460019092019101610464565b50848210156104a157868401515f19600387901b60f8161c191681555b50505050600190811b01905550565b60805160a05160c05160e051611bf26105295f395f81816103ad015261097301525f81816106b601528181610718015281816107a7015281816109f901528181610be101528181610d6601528181610e1201528181611033015261110d01525f610acc01525f81816103640152610b9d0152611bf25ff3fe608060405260043610610212575f3560e01c80637d41c86e1161011e578063c63d75b6116100a8578063ddd5e1b21161006d578063ddd5e1b214610618578063e979b24c14610637578063ec4ba55c146106a5578063ef8b30f714610577578063f2fde38b146106d8575f5ffd5b8063c63d75b6146103cf578063c6e6f59214610577578063ce96cb7714610596578063d905777e146105b5578063dd62ed3e146105d4575f5ffd5b8063a9059cbb116100ee578063a9059cbb146104e6578063b3d7f6b914610505578063b460af9414610524578063b6363cf21461053e578063ba08765214610524575f5ffd5b80637d41c86e146104775780638da5cb5b1461049657806394bf804d146104b357806395d89b41146104d2575f5ffd5b8063313ce5671161019f5780634cdad5061161016f5780634cdad506146102cb578063558a7297146103ef5780636e553f651461040e57806370a082311461042d578063715018a614610461575f5ffd5b8063313ce5671461033057806338d52e0f146103565780633fc8cef31461039c578063402d267d146103cf575f5ffd5b8063095ea7b3116101e5578063095ea7b3146102ac5780630a28a477146102cb57806318160ddd146102ea57806323b872dd146102fe5780632d2da8061461031d575f5ffd5b806301e1d1141461021657806301ffc9a71461023d57806306fdde031461026c57806307a2d13a1461028d575b5f5ffd5b348015610221575f5ffd5b5061022a6106f7565b6040519081526020015b60405180910390f35b348015610248575f5ffd5b5061025c6102573660046117e4565b61081e565b6040519015158152602001610234565b348015610277575f5ffd5b50610280610854565b604051610234919061180b565b348015610298575f5ffd5b5061022a6102a7366004611840565b6108e4565b3480156102b7575f5ffd5b5061025c6102c6366004611872565b6108ef565b3480156102d6575f5ffd5b5061022a6102e5366004611840565b610906565b3480156102f5575f5ffd5b5060025461022a565b348015610309575f5ffd5b5061025c61031836600461189a565b610920565b61022a61032b3660046118d4565b610945565b34801561033b575f5ffd5b50610344610ac5565b60405160ff9091168152602001610234565b348015610361575f5ffd5b507f00000000000000000000000000000000000000000000000000000000000000005b6040516001600160a01b039091168152602001610234565b3480156103a7575f5ffd5b506103847f000000000000000000000000000000000000000000000000000000000000000081565b3480156103da575f5ffd5b5061022a6103e93660046118d4565b505f1990565b3480156103fa575f5ffd5b5061025c6104093660046118ed565b610af5565b348015610419575f5ffd5b5061022a610428366004611926565b610b64565b348015610438575f5ffd5b5061022a6104473660046118d4565b6001600160a01b03165f9081526020819052604090205490565b34801561046c575f5ffd5b50610475610caa565b005b348015610482575f5ffd5b5061022a610491366004611950565b610cbd565b3480156104a1575f5ffd5b506005546001600160a01b0316610384565b3480156104be575f5ffd5b5061022a6104cd366004611926565b610f45565b3480156104dd575f5ffd5b50610280610f5f565b3480156104f1575f5ffd5b5061025c610500366004611872565b610f6e565b348015610510575f5ffd5b5061022a61051f366004611840565b610f7b565b34801561052f575f5ffd5b5061022a6102e5366004611950565b348015610549575f5ffd5b5061025c610558366004611989565b600660209081525f928352604080842090915290825290205460ff1681565b348015610582575f5ffd5b5061022a610591366004611840565b610f87565b3480156105a1575f5ffd5b5061022a6105b03660046118d4565b610f92565b3480156105c0575f5ffd5b5061022a6105cf3660046118d4565b610f9b565b3480156105df575f5ffd5b5061022a6105ee366004611989565b6001600160a01b039182165f90815260016020908152604080832093909416825291909152205490565b348015610623575f5ffd5b5061022a610632366004611926565b610fb8565b348015610642575f5ffd5b5061067e610651366004611840565b60086020525f90815260409020805460018201546002909201546001600160a01b03909116919060ff1683565b604080516001600160a01b0390941684526020840192909252151590820152606001610234565b3480156106b0575f5ffd5b506103847f000000000000000000000000000000000000000000000000000000000000000081565b3480156106e3575f5ffd5b506104756106f23660046118d4565b611180565b6040516370a0823160e01b81523060048201525f9081906001600160a01b037f000000000000000000000000000000000000000000000000000000000000000016906370a0823190602401602060405180830381865afa15801561075d573d5f5f3e3d5ffd5b505050506040513d601f19601f8201168201806040525081019061078191906119b1565b9050805f03610791575f91505090565b6040516303d1689d60e11b8152600481018290527f00000000000000000000000000000000000000000000000000000000000000006001600160a01b0316906307a2d13a90602401602060405180830381865afa1580156107f4573d5f5f3e3d5ffd5b505050506040513d601f19601f8201168201806040525081019061081891906119b1565b91505090565b5f631883ba3960e21b6001600160e01b03198316148061084e575063e3bc4e6560e01b6001600160e01b03198316145b92915050565b606060038054610863906119c8565b80601f016020809104026020016040519081016040528092919081815260200182805461088f906119c8565b80156108da5780601f106108b1576101008083540402835291602001916108da565b820191905f5260205f20905b8154815290600101906020018083116108bd57829003601f168201915b5050505050905090565b5f61084e825f6111c2565b5f336108fc8185856111fa565b5060019392505050565b5f604051633cbf923560e11b815260040160405180910390fd5b5f3361092d85828561120c565b610938858585611288565b60019150505b9392505050565b5f345f0361096657604051631f2a200560e01b815260040160405180910390fd5b61096f34610f87565b90507f00000000000000000000000000000000000000000000000000000000000000006001600160a01b031663d0e30db0346040518263ffffffff1660e01b81526004015f604051808303818588803b1580156109ca575f5ffd5b505af11580156109dc573d5f5f3e3d5ffd5b5050604051636e553f6560e01b81523460048201523060248201527f00000000000000000000000000000000000000000000000000000000000000006001600160a01b03169350636e553f65925060440190506020604051808303815f875af1158015610a4b573d5f5f3e3d5ffd5b505050506040513d601f19601f82011682018060405250810190610a6f91906119b1565b50610a7a82826112e5565b60408051348152602081018390526001600160a01b0384169133917fdcbc1c05240f31ff3ad067ef1ee35ce4997762752e3a095284754544f4c709d7910160405180910390a3919050565b5f610af0817f0000000000000000000000000000000000000000000000000000000000000000611a14565b905090565b335f8181526006602090815260408083206001600160a01b038716808552908352818420805460ff191687151590811790915591519182529293917fceb576d9f15e4e200fdb5096d64d5dfd667e16def20c1eefd14256d8e3faa267910160405180910390a350600192915050565b5f825f03610b8557604051631f2a200560e01b815260040160405180910390fd5b610b8e83610f87565b9050610bc56001600160a01b037f00000000000000000000000000000000000000000000000000000000000000001633308661131d565b604051636e553f6560e01b8152600481018490523060248201527f00000000000000000000000000000000000000000000000000000000000000006001600160a01b031690636e553f65906044016020604051808303815f875af1158015610c2f573d5f5f3e3d5ffd5b505050506040513d601f19601f82011682018060405250810190610c5391906119b1565b50610c5e82826112e5565b60408051848152602081018390526001600160a01b0384169133917fdcbc1c05240f31ff3ad067ef1ee35ce4997762752e3a095284754544f4c709d7910160405180910390a392915050565b610cb2611353565b610cbb5f611380565b565b5f835f03610cde57604051631f2a200560e01b815260040160405180910390fd5b6001600160a01b0382163314801590610d1a57506001600160a01b0382165f90815260066020908152604080832033845290915290205460ff16155b15610d385760405163ea8e4eb560e01b815260040160405180910390fd5b5f610d4260025490565b6040516370a0823160e01b81523060048201529091505f9082906001600160a01b037f000000000000000000000000000000000000000000000000000000000000000016906370a0823190602401602060405180830381865afa158015610dab573d5f5f3e3d5ffd5b505050506040513d601f19601f82011682018060405250810190610dcf91906119b1565b610dd99088611a2d565b610de39190611a58565b9050610def84876113d1565b604051633ea0e43760e11b815260048101829052306024820181905260448201527f00000000000000000000000000000000000000000000000000000000000000006001600160a01b031690637d41c86e906064016020604051808303815f875af1158015610e60573d5f5f3e3d5ffd5b505050506040513d601f19601f82011682018060405250810190610e8491906119b1565b5060078054905f610e9483611a6b565b90915550604080516060810182526001600160a01b0388811680835260208084018781525f8587018181528882526008845290879020955186546001600160a01b03191690861617865590516001860155516002909401805460ff19169415159490941790935583513381529283018b905293965086939088169290917f1fdc681a13d8c5da54e301c7ce6542dcde4581e4725043fdab2db12ddc574506910160405180910390a450509392505050565b5f6040516354327fab60e01b815260040160405180910390fd5b606060048054610863906119c8565b5f336108fc818585611288565b5f61084e8260016111c2565b5f61084e825f611405565b5f61084e6102e5835b6001600160a01b0381165f9081526020819052604081205461084e565b5f82815260086020526040812080546001600160a01b03163314610fef5760405163ea8e4eb560e01b815260040160405180910390fd5b600281015460ff161561101557604051630c8d9eab60e31b815260040160405180910390fd5b60405163eaed1d0760e01b81525f60048201819052306024830152907f00000000000000000000000000000000000000000000000000000000000000006001600160a01b03169063eaed1d0790604401602060405180830381865afa158015611080573d5f5f3e3d5ffd5b505050506040513d601f19601f820116820180604052508101906110a491906119b1565b905081600101548110156110cb57604051636c09fbc960e11b815260040160405180910390fd5b60028201805460ff19166001908117909155820154604051635d043b2960e11b815260048101919091526001600160a01b0385811660248301523060448301527f0000000000000000000000000000000000000000000000000000000000000000169063ba087652906064016020604051808303815f875af1158015611153573d5f5f3e3d5ffd5b505050506040513d601f19601f8201168201806040525081019061117791906119b1565b95945050505050565b611188611353565b6001600160a01b0381166111b657604051631e4fbdf760e01b81525f60048201526024015b60405180910390fd5b6111bf81611380565b50565b5f61093e6111ce6106f7565b6111d9906001611a83565b6111e45f600a611b79565b6002546111f19190611a83565b85919085611434565b6112078383836001611476565b505050565b6001600160a01b038381165f908152600160209081526040808320938616835292905220545f19811015611282578181101561127457604051637dc7a0d960e11b81526001600160a01b038416600482015260248101829052604481018390526064016111ad565b61128284848484035f611476565b50505050565b6001600160a01b0383166112b157604051634b637e8f60e11b81525f60048201526024016111ad565b6001600160a01b0382166112da5760405163ec442f0560e01b81525f60048201526024016111ad565b611207838383611548565b6001600160a01b03821661130e5760405163ec442f0560e01b81525f60048201526024016111ad565b6113195f8383611548565b5050565b61132b84848484600161166e565b61128257604051635274afe760e01b81526001600160a01b03851660048201526024016111ad565b6005546001600160a01b03163314610cbb5760405163118cdaa760e01b81523360048201526024016111ad565b600580546001600160a01b038381166001600160a01b0319831681179093556040519116919082907f8be0079c531659141344cd1fd0a4f28419497f9722a3daafe3b4186f6b6457e0905f90a35050565b6001600160a01b0382166113fa57604051634b637e8f60e11b81525f60048201526024016111ad565b611319825f83611548565b5f61093e61141482600a611b79565b6002546114219190611a83565b6114296106f7565b6111f1906001611a83565b5f611461611441836116db565b801561145c57505f848061145757611457611a44565b868809115b151590565b61146c868686611707565b6111779190611a83565b6001600160a01b03841661149f5760405163e602df0560e01b81525f60048201526024016111ad565b6001600160a01b0383166114c857604051634a1406b160e11b81525f60048201526024016111ad565b6001600160a01b038085165f908152600160209081526040808320938716835292905220829055801561128257826001600160a01b0316846001600160a01b03167f8c5be1e5ebec7d5bd14f71427d1e84f3dd0314c0f7b2291e5b200ac8c7c3b9258460405161153a91815260200190565b60405180910390a350505050565b6001600160a01b038316611572578060025f8282546115679190611a83565b909155506115e29050565b6001600160a01b0383165f90815260208190526040902054818110156115c45760405163391434e360e21b81526001600160a01b038516600482015260248101829052604481018390526064016111ad565b6001600160a01b0384165f9081526020819052604090209082900390555b6001600160a01b0382166115fe5760028054829003905561161c565b6001600160a01b0382165f9081526020819052604090208054820190555b816001600160a01b0316836001600160a01b03167fddf252ad1be2c89b69c2b068fc378daa952ba7f163c4a11628f55a4df523b3ef8360405161166191815260200190565b60405180910390a3505050565b6040516323b872dd60e01b5f8181526001600160a01b038781166004528616602452604485905291602083606481808c5af1925060015f511483166116ca5783831516156116be573d5f823e3d81fd5b5f883b113d1516831692505b604052505f60605295945050505050565b5f60028260038111156116f0576116f0611b87565b6116fa9190611b9b565b60ff166001149050919050565b5f5f5f61171486866117b7565b91509150815f036117385783818161172e5761172e611a44565b049250505061093e565b81841161174f5761174f60038515026011186117d3565b5f848688095f868103871696879004966002600389028118808a02820302808a02820302808a02820302808a02820302808a02820302808a02909103029181900381900460010185841190960395909502919093039390930492909217029150509392505050565b5f805f1983850993909202808410938190039390930393915050565b634e487b715f52806020526024601cfd5b5f602082840312156117f4575f5ffd5b81356001600160e01b03198116811461093e575f5ffd5b602081525f82518060208401528060208501604085015e5f604082850101526040601f19601f83011684010191505092915050565b5f60208284031215611850575f5ffd5b5035919050565b80356001600160a01b038116811461186d575f5ffd5b919050565b5f5f60408385031215611883575f5ffd5b61188c83611857565b946020939093013593505050565b5f5f5f606084860312156118ac575f5ffd5b6118b584611857565b92506118c360208501611857565b929592945050506040919091013590565b5f602082840312156118e4575f5ffd5b61093e82611857565b5f5f604083850312156118fe575f5ffd5b61190783611857565b91506020830135801515811461191b575f5ffd5b809150509250929050565b5f5f60408385031215611937575f5ffd5b8235915061194760208401611857565b90509250929050565b5f5f5f60608486031215611962575f5ffd5b8335925061197260208501611857565b915061198060408501611857565b90509250925092565b5f5f6040838503121561199a575f5ffd5b6119a383611857565b915061194760208401611857565b5f602082840312156119c1575f5ffd5b5051919050565b600181811c908216806119dc57607f821691505b6020821081036119fa57634e487b7160e01b5f52602260045260245ffd5b50919050565b634e487b7160e01b5f52601160045260245ffd5b60ff818116838216019081111561084e5761084e611a00565b808202811582820484141761084e5761084e611a00565b634e487b7160e01b5f52601260045260245ffd5b5f82611a6657611a66611a44565b500490565b5f60018201611a7c57611a7c611a00565b5060010190565b8082018082111561084e5761084e611a00565b6001815b6001841115611ad157808504811115611ab557611ab5611a00565b6001841615611ac357908102905b60019390931c928002611a9a565b935093915050565b5f82611ae75750600161084e565b81611af357505f61084e565b8160018114611b095760028114611b1357611b2f565b600191505061084e565b60ff841115611b2457611b24611a00565b50506001821b61084e565b5060208310610133831016604e8410600b8410161715611b52575081810a61084e565b611b5e5f198484611a96565b805f1904821115611b7157611b71611a00565b029392505050565b5f61093e60ff841683611ad9565b634e487b7160e01b5f52602160045260245ffd5b5f60ff831680611bad57611bad611a44565b8060ff8416069150509291505056fea2646970667358221220734320c1349a71031ae03340b4709e74ad8ccbf2725b58a7818d3274915831bd64736f6c634300081c0033",
  "linkReferences": {},
  "deployedLinkReferences": {},
  "immutableReferences": {
    "1164": [
      {
        "length": 32,
        "start": 868
      },
      {
        "length": 32,
        "start": 2973
      }
    ],
    "1166": [
      {
        "length": 32,
        "start": 2764
      }
    ],
    "6408": [
      {
        "length": 32,
        "start": 1718
      },
      {
        "length": 32,
        "start": 1816
      },
      {
        "length": 32,
        "start": 1959
      },
      {
        "length": 32,
        "start": 2553
      },
      {
        "length": 32,
        "start": 3041
      },
      {
        "length": 32,
        "start": 3430
      },
      {
        "length": 32,
        "start": 3602
      },
      {
        "length": 32,
        "start": 4147
      },
      {
        "length": 32,
        "start": 4365
      }
    ],
    "6411": [
      {
        "length": 32,
        "start": 941
      },
      {
        "length": 32,
        "start": 2419
      }
    ]
  },
  "inputSourceName": "project/contracts/LSE.sol",
  "buildInfoId": "solc-0_8_28-0ee0c2684a56599b9adc0c9681ac1588c5b06b7f"
}