{
  "_format": "hh3-artifact-1",
  "contractName": "LSE",
  "sourceName": "contracts/LSE.sol",
  "abi": [
    {
      "inputs": [
        {
          "internalType": "contract IERC20",
          "name": "_weth",
          "type": "address"
        },
        {
          "internalType": "contract IERC20",
          "name": "_usdc",
          "type": "address"
        },
        {
          "internalType": "contract IZyFAI",
          "name": "_zyFAI",
          "type": "address"
        },
        {
          "internalType": "contract ISwapper",
          "name": "_swapper",
          "type": "address"
        },
        {
          "internalType": "uint256",
          "name": "_wethPriceInUsdc",
          "type": "uint256"
        }
      ],
      "stateMutability": "nonpayable",
      "type": "constructor"
    },
    {
      "inputs": [],
      "name": "AlreadyClaimed",
      "type": "error"
    },
    {
      "inputs": [
        {
          "internalType": "address",
          "name": "spender",
          "type": "address"
        },
        {
          "internalType": "uint256",
          "name": "allowance",
          "type": "uint256"
        },
        {
          "internalType": "uint256",
          "name": "needed",
          "type": "uint256"
        }
      ],
      "name": "ERC20InsufficientAllowance",
      "type": "error"
    },
    {
      "inputs": [
        {
          "internalType": "address",
          "name": "sender",
          "type": "address"
        },
        {
          "internalType": "uint256",
          "name": "balance",
          "type": "uint256"
        },
        {
          "internalType": "uint256",
          "name": "needed",
          "type": "uint256"
        }
      ],
      "name": "ERC20InsufficientBalance",
      "type": "error"
    },
    {
      "inputs": [
        {
          "internalType": "address",
          "name": "approver",
          "type": "address"
        }
      ],
      "name": "ERC20InvalidApprover",
      "type": "error"
    },
    {
      "inputs": [
        {
          "internalType": "address",
          "name": "receiver",
          "type": "address"
        }
      ],
      "name": "ERC20InvalidReceiver",
      "type": "error"
    },
    {
      "inputs": [
        {
          "internalType": "address",
          "name": "sender",
          "type": "address"
        }
      ],
      "name": "ERC20InvalidSender",
      "type": "error"
    },
    {
      "inputs": [
        {
          "internalType": "address",
          "name": "spender",
          "type": "address"
        }
      ],
      "name": "ERC20InvalidSpender",
      "type": "error"
    },
    {
      "inputs": [
        {
          "internalType": "address",
          "name": "receiver",
          "type": "address"
        },
        {
          "internalType": "uint256",
          "name": "assets",
          "type": "uint256"
        },
        {
          "internalType": "uint256",
          "name": "max",
          "type": "uint256"
        }
      ],
      "name": "ERC4626ExceededMaxDeposit",
      "type": "error"
    },
    {
      "inputs": [
        {
          "internalType": "address",
          "name": "receiver",
          "type": "address"
        },
        {
          "internalType": "uint256",
          "name": "shares",
          "type": "uint256"
        },
        {
          "internalType": "uint256",
          "name": "max",
          "type": "uint256"
        }
      ],
      "name": "ERC4626ExceededMaxMint",
      "type": "error"
    },
    {
      "inputs": [
        {
          "internalType": "address",
          "name": "owner",
          "type": "address"
        },
        {
          "internalType": "uint256",
          "name": "shares",
          "type": "uint256"
        },
        {
          "internalType": "uint256",
          "name": "max",
          "type": "uint256"
        }
      ],
      "name": "ERC4626ExceededMaxRedeem",
      "type": "error"
    },
    {
      "inputs": [
        {
          "internalType": "address",
          "name": "owner",
          "type": "address"
        },
        {
          "internalType": "uint256",
          "name": "assets",
          "type": "uint256"
        },
        {
          "internalType": "uint256",
          "name": "max",
          "type": "uint256"
        }
      ],
      "name": "ERC4626ExceededMaxWithdraw",
      "type": "error"
    },
    {
      "inputs": [],
      "name": "NotAuthorized",
      "type": "error"
    },
    {
      "inputs": [],
      "name": "NotClaimableYet",
      "type": "error"
    },
    {
      "inputs": [
        {
          "internalType": "address",
          "name": "owner",
          "type": "address"
        }
      ],
      "name": "OwnableInvalidOwner",
      "type": "error"
    },
    {
      "inputs": [
        {
          "internalType": "address",
          "name": "account",
          "type": "address"
        }
      ],
      "name": "OwnableUnauthorizedAccount",
      "type": "error"
    },
    {
      "inputs": [
        {
          "internalType": "address",
          "name": "token",
          "type": "address"
        }
      ],
      "name": "SafeERC20FailedOperation",
      "type": "error"
    },
    {
      "inputs": [],
      "name": "UseDeposit",
      "type": "error"
    },
    {
      "inputs": [],
      "name": "UseRequestRedeem",
      "type": "error"
    },
    {
      "inputs": [],
      "name": "ZeroAmount",
      "type": "error"
    },
    {
      "anonymous": false,
      "inputs": [
        {
          "indexed": true,
          "internalType": "address",
          "name": "owner",
          "type": "address"
        },
        {
          "indexed": true,
          "internalType": "address",
          "name": "spender",
          "type": "address"
        },
        {
          "indexed": false,
          "internalType": "uint256",
          "name": "value",
          "type": "uint256"
        }
      ],
      "name": "Approval",
      "type": "event"
    },
    {
      "anonymous": false,
      "inputs": [
        {
          "indexed": true,
          "internalType": "address",
          "name": "sender",
          "type": "address"
        },
        {
          "indexed": true,
          "internalType": "address",
          "name": "owner",
          "type": "address"
        },
        {
          "indexed": false,
          "internalType": "uint256",
          "name": "assets",
          "type": "uint256"
        },
        {
          "indexed": false,
          "internalType": "uint256",
          "name": "shares",
          "type": "uint256"
        }
      ],
      "name": "Deposit",
      "type": "event"
    },
    {
      "anonymous": false,
      "inputs": [
        {
          "indexed": true,
          "internalType": "address",
          "name": "controller",
          "type": "address"
        },
        {
          "indexed": true,
          "internalType": "address",
          "name": "operator",
          "type": "address"
        },
        {
          "indexed": false,
          "internalType": "bool",
          "name": "approved",
          "type": "bool"
        }
      ],
      "name": "OperatorSet",
      "type": "event"
    },
    {
      "anonymous": false,
      "inputs": [
        {
          "indexed": true,
          "internalType": "address",
          "name": "previousOwner",
          "type": "address"
        },
        {
          "indexed": true,
          "internalType": "address",
          "name": "newOwner",
          "type": "address"
        }
      ],
      "name": "OwnershipTransferred",
      "type": "event"
    },
    {
      "anonymous": false,
      "inputs": [
        {
          "indexed": true,
          "internalType": "address",
          "name": "controller",
          "type": "address"
        },
        {
          "indexed": true,
          "internalType": "address",
          "name": "owner",
          "type": "address"
        },
        {
          "indexed": true,
          "internalType": "uint256",
          "name": "requestId",
          "type": "uint256"
        },
        {
          "indexed": false,
          "internalType": "address",
          "name": "sender",
          "type": "address"
        },
        {
          "indexed": false,
          "internalType": "uint256",
          "name": "shares",
          "type": "uint256"
        }
      ],
      "name": "RedeemRequest",
      "type": "event"
    },
    {
      "anonymous": false,
      "inputs": [
        {
          "indexed": true,
          "internalType": "address",
          "name": "from",
          "type": "address"
        },
        {
          "indexed": true,
          "internalType": "address",
          "name": "to",
          "type": "address"
        },
        {
          "indexed": false,
          "internalType": "uint256",
          "name": "value",
          "type": "uint256"
        }
      ],
      "name": "Transfer",
      "type": "event"
    },
    {
      "anonymous": false,
      "inputs": [
        {
          "indexed": true,
          "internalType": "address",
          "name": "sender",
          "type": "address"
        },
        {
          "indexed": true,
          "internalType": "address",
          "name": "receiver",
          "type": "address"
        },
        {
          "indexed": true,
          "internalType": "address",
          "name": "owner",
          "type": "address"
        },
        {
          "indexed": false,
          "internalType": "uint256",
          "name": "assets",
          "type": "uint256"
        },
        {
          "indexed": false,
          "internalType": "uint256",
          "name": "shares",
          "type": "uint256"
        }
      ],
      "name": "Withdraw",
      "type": "event"
    },
    {
      "inputs": [
        {
          "internalType": "address",
          "name": "owner",
          "type": "address"
        },
        {
          "internalType": "address",
          "name": "spender",
          "type": "address"
        }
      ],
      "name": "allowance",
      "outputs": [
        {
          "internalType": "uint256",
          "name": "",
          "type": "uint256"
        }
      ],
      "stateMutability": "view",
      "type": "function"
    },
    {
      "inputs": [
        {
          "internalType": "address",
          "name": "spender",
          "type": "address"
        },
        {
          "internalType": "uint256",
          "name": "value",
          "type": "uint256"
        }
      ],
      "name": "approve",
      "outputs": [
        {
          "internalType": "bool",
          "name": "",
          "type": "bool"
        }
      ],
      "stateMutability": "nonpayable",
      "type": "function"
    },
    {
      "inputs": [],
      "name": "asset",
      "outputs": [
        {
          "internalType": "address",
          "name": "",
          "type": "address"
        }
      ],
      "stateMutability": "view",
      "type": "function"
    },
    {
      "inputs": [
        {
          "internalType": "address",
          "name": "account",
          "type": "address"
        }
      ],
      "name": "balanceOf",
      "outputs": [
        {
          "internalType": "uint256",
          "name": "",
          "type": "uint256"
        }
      ],
      "stateMutability": "view",
      "type": "function"
    },
    {
      "inputs": [
        {
          "internalType": "uint256",
          "name": "requestId",
          "type": "uint256"
        },
        {
          "internalType": "address",
          "name": "receiver",
          "type": "address"
        }
      ],
      "name": "claim",
      "outputs": [
        {
          "internalType": "uint256",
          "name": "wethReceived",
          "type": "uint256"
        }
      ],
      "stateMutability": "nonpayable",
      "type": "function"
    },
    {
      "inputs": [
        {
          "internalType": "uint256",
          "name": "shares",
          "type": "uint256"
        }
      ],
      "name": "convertToAssets",
      "outputs": [
        {
          "internalType": "uint256",
          "name": "",
          "type": "uint256"
        }
      ],
      "stateMutability": "view",
      "type": "function"
    },
    {
      "inputs": [
        {
          "internalType": "uint256",
          "name": "assets",
          "type": "uint256"
        }
      ],
      "name": "convertToShares",
      "outputs": [
        {
          "internalType": "uint256",
          "name": "",
          "type": "uint256"
        }
      ],
      "stateMutability": "view",
      "type": "function"
    },
    {
      "inputs": [],
      "name": "decimals",
      "outputs": [
        {
          "internalType": "uint8",
          "name": "",
          "type": "uint8"
        }
      ],
      "stateMutability": "view",
      "type": "function"
    },
    {
      "inputs": [
        {
          "internalType": "uint256",
          "name": "assets",
          "type": "uint256"
        },
        {
          "internalType": "address",
          "name": "receiver",
          "type": "address"
        }
      ],
      "name": "deposit",
      "outputs": [
        {
          "internalType": "uint256",
          "name": "shares",
          "type": "uint256"
        }
      ],
      "stateMutability": "nonpayable",
      "type": "function"
    },
    {
      "inputs": [
        {
          "internalType": "address",
          "name": "controller",
          "type": "address"
        },
        {
          "internalType": "address",
          "name": "operator",
          "type": "address"
        }
      ],
      "name": "isOperator",
      "outputs": [
        {
          "internalType": "bool",
          "name": "",
          "type": "bool"
        }
      ],
      "stateMutability": "view",
      "type": "function"
    },
    {
      "inputs": [
        {
          "internalType": "address",
          "name": "",
          "type": "address"
        }
      ],
      "name": "maxDeposit",
      "outputs": [
        {
          "internalType": "uint256",
          "name": "",
          "type": "uint256"
        }
      ],
      "stateMutability": "view",
      "type": "function"
    },
    {
      "inputs": [
        {
          "internalType": "address",
          "name": "",
          "type": "address"
        }
      ],
      "name": "maxMint",
      "outputs": [
        {
          "internalType": "uint256",
          "name": "",
          "type": "uint256"
        }
      ],
      "stateMutability": "view",
      "type": "function"
    },
    {
      "inputs": [
        {
          "internalType": "address",
          "name": "owner",
          "type": "address"
        }
      ],
      "name": "maxRedeem",
      "outputs": [
        {
          "internalType": "uint256",
          "name": "",
          "type": "uint256"
        }
      ],
      "stateMutability": "view",
      "type": "function"
    },
    {
      "inputs": [
        {
          "internalType": "address",
          "name": "owner",
          "type": "address"
        }
      ],
      "name": "maxWithdraw",
      "outputs": [
        {
          "internalType": "uint256",
          "name": "",
          "type": "uint256"
        }
      ],
      "stateMutability": "view",
      "type": "function"
    },
    {
      "inputs": [
        {
          "internalType": "uint256",
          "name": "",
          "type": "uint256"
        },
        {
          "internalType": "address",
          "name": "",
          "type": "address"
        }
      ],
      "name": "mint",
      "outputs": [
        {
          "internalType": "uint256",
          "name": "",
          "type": "uint256"
        }
      ],
      "stateMutability": "pure",
      "type": "function"
    },
    {
      "inputs": [],
      "name": "name",
      "outputs": [
        {
          "internalType": "string",
          "name": "",
          "type": "string"
        }
      ],
      "stateMutability": "view",
      "type": "function"
    },
    {
      "inputs": [],
      "name": "owner",
      "outputs": [
        {
          "internalType": "address",
          "name": "",
          "type": "address"
        }
      ],
      "stateMutability": "view",
      "type": "function"
    },
    {
      "inputs": [
        {
          "internalType": "uint256",
          "name": "requestId",
          "type": "uint256"
        }
      ],
      "name": "pendingRedeems",
      "outputs": [
        {
          "internalType": "address",
          "name": "controller",
          "type": "address"
        },
        {
          "internalType": "uint256",
          "name": "zyFaiShares",
          "type": "uint256"
        },
        {
          "internalType": "bool",
          "name": "claimed",
          "type": "bool"
        }
      ],
      "stateMutability": "view",
      "type": "function"
    },
    {
      "inputs": [
        {
          "internalType": "uint256",
          "name": "assets",
          "type": "uint256"
        }
      ],
      "name": "previewDeposit",
      "outputs": [
        {
          "internalType": "uint256",
          "name": "",
          "type": "uint256"
        }
      ],
      "stateMutability": "view",
      "type": "function"
    },
    {
      "inputs": [
        {
          "internalType": "uint256",
          "name": "shares",
          "type": "uint256"
        }
      ],
      "name": "previewMint",
      "outputs": [
        {
          "internalType": "uint256",
          "name": "",
          "type": "uint256"
        }
      ],
      "stateMutability": "view",
      "type": "function"
    },
    {
      "inputs": [
        {
          "internalType": "uint256",
          "name": "",
          "type": "uint256"
        }
      ],
      "name": "previewRedeem",
      "outputs": [
        {
          "internalType": "uint256",
          "name": "",
          "type": "uint256"
        }
      ],
      "stateMutability": "pure",
      "type": "function"
    },
    {
      "inputs": [
        {
          "internalType": "uint256",
          "name": "",
          "type": "uint256"
        }
      ],
      "name": "previewWithdraw",
      "outputs": [
        {
          "internalType": "uint256",
          "name": "",
          "type": "uint256"
        }
      ],
      "stateMutability": "pure",
      "type": "function"
    },
    {
      "inputs": [
        {
          "internalType": "uint256",
          "name": "",
          "type": "uint256"
        },
        {
          "internalType": "address",
          "name": "",
          "type": "address"
        },
        {
          "internalType": "address",
          "name": "",
          "type": "address"
        }
      ],
      "name": "redeem",
      "outputs": [
        {
          "internalType": "uint256",
          "name": "",
          "type": "uint256"
        }
      ],
      "stateMutability": "pure",
      "type": "function"
    },
    {
      "inputs": [],
      "name": "renounceOwnership",
      "outputs": [],
      "stateMutability": "nonpayable",
      "type": "function"
    },
    {
      "inputs": [
        {
          "internalType": "uint256",
          "name": "shares",
          "type": "uint256"
        },
        {
          "internalType": "address",
          "name": "controller",
          "type": "address"
        },
        {
          "internalType": "address",
          "name": "owner",
          "type": "address"
        }
      ],
      "name": "requestRedeem",
      "outputs": [
        {
          "internalType": "uint256",
          "name": "requestId",
          "type": "uint256"
        }
      ],
      "stateMutability": "nonpayable",
      "type": "function"
    },
    {
      "inputs": [
        {
          "internalType": "address",
          "name": "operator",
          "type": "address"
        },
        {
          "internalType": "bool",
          "name": "approved",
          "type": "bool"
        }
      ],
      "name": "setOperator",
      "outputs": [
        {
          "internalType": "bool",
          "name": "",
          "type": "bool"
        }
      ],
      "stateMutability": "nonpayable",
      "type": "function"
    },
    {
      "inputs": [
        {
          "internalType": "address",
          "name": "_swapper",
          "type": "address"
        }
      ],
      "name": "setSwapper",
      "outputs": [],
      "stateMutability": "nonpayable",
      "type": "function"
    },
    {
      "inputs": [
        {
          "internalType": "uint256",
          "name": "_wethPriceInUsdc",
          "type": "uint256"
        }
      ],
      "name": "setWethPrice",
      "outputs": [],
      "stateMutability": "nonpayable",
      "type": "function"
    },
    {
      "inputs": [
        {
          "internalType": "bytes4",
          "name": "interfaceId",
          "type": "bytes4"
        }
      ],
      "name": "supportsInterface",
      "outputs": [
        {
          "internalType": "bool",
          "name": "",
          "type": "bool"
        }
      ],
      "stateMutability": "pure",
      "type": "function"
    },
    {
      "inputs": [],
      "name": "swapper",
      "outputs": [
        {
          "internalType": "contract ISwapper",
          "name": "",
          "type": "address"
        }
      ],
      "stateMutability": "view",
      "type": "function"
    },
    {
      "inputs": [],
      "name": "symbol",
      "outputs": [
        {
          "internalType": "string",
          "name": "",
          "type": "string"
        }
      ],
      "stateMutability": "view",
      "type": "function"
    },
    {
      "inputs": [],
      "name": "totalAssets",
      "outputs": [
        {
          "internalType": "uint256",
          "name": "",
          "type": "uint256"
        }
      ],
      "stateMutability": "view",
      "type": "function"
    },
    {
      "inputs": [],
      "name": "totalSupply",
      "outputs": [
        {
          "internalType": "uint256",
          "name": "",
          "type": "uint256"
        }
      ],
      "stateMutability": "view",
      "type": "function"
    },
    {
      "inputs": [
        {
          "internalType": "address",
          "name": "to",
          "type": "address"
        },
        {
          "internalType": "uint256",
          "name": "value",
          "type": "uint256"
        }
      ],
      "name": "transfer",
      "outputs": [
        {
          "internalType": "bool",
          "name": "",
          "type": "bool"
        }
      ],
      "stateMutability": "nonpayable",
      "type": "function"
    },
    {
      "inputs": [
        {
          "internalType": "address",
          "name": "from",
          "type": "address"
        },
        {
          "internalType": "address",
          "name": "to",
          "type": "address"
        },
        {
          "internalType": "uint256",
          "name": "value",
          "type": "uint256"
        }
      ],
      "name": "transferFrom",
      "outputs": [
        {
          "internalType": "bool",
          "name": "",
          "type": "bool"
        }
      ],
      "stateMutability": "nonpayable",
      "type": "function"
    },
    {
      "inputs": [
        {
          "internalType": "address",
          "name": "newOwner",
          "type": "address"
        }
      ],
      "name": "transferOwnership",
      "outputs": [],
      "stateMutability": "nonpayable",
      "type": "function"
    },
    {
      "inputs": [],
      "name": "usdc",
      "outputs": [
        {
          "internalType": "contract IERC20",
          "name": "",
          "type": "address"
        }
      ],
      "stateMutability": "view",
      "type": "function"
    },
    {
      "inputs": [],
      "name": "weth",
      "outputs": [
        {
          "internalType": "contract IERC20",
          "name": "",
          "type": "address"
        }
      ],
      "stateMutability": "view",
      "type": "function"
    },
    {
      "inputs": [],
      "name": "wethPriceInUsdc",
      "outputs": [
        {
          "internalType": "uint256",
          "name": "",
          "type": "uint256"
        }
      ],
      "stateMutability": "view",
      "type": "function"
    },
    {
      "inputs": [
        {
          "internalType": "uint256",
          "name": "",
          "type": "uint256"
        },
        {
          "internalType": "address",
          "name": "",
          "type": "address"
        },
        {
          "internalType": "address",
          "name": "",
          "type": "address"
        }
      ],
      "name": "withdraw",
      "outputs": [
        {
          "internalType": "uint256",
          "name": "",
          "type": "uint256"
        }
      ],
      "stateMutability": "pure",
      "type": "function"
    },
    {
      "inputs": [],
      "name": "zyFAI",
      "outputs": [
        {
          "internalType": "contract IZyFAI",
          "name": "",
          "type": "address"
        }
      ],
      "stateMutability": "view",
      "type": "function"
    }
  ],
  "bytecode": "0x6101206040526001600855348015610015575f5ffd5b506040516122963803806122968339810160408190526100349161036e565b33856040518060400160405280601081526020016f098d2e2ead2c840a6e8dec6d6408aa8960831b815250604051806040016040528060038152602001624c534560e81b815250816003908161008a919061046c565b506004610097828261046c565b5050505f5f6100ab8361017360201b60201c565b91509150816100bb5760126100bd565b805b60ff1660a05250506001600160a01b0390811660805281166100f957604051631e4fbdf760e01b81525f60048201526024015b60405180910390fd5b61010281610204565b506001600160a01b038581166101005284811660e081905284821660c0819052600680546001600160a01b03191693861693909317909255600a83905561014a915f19610255565b60065461010051610169916001600160a01b0391821691165f19610255565b5050505050610526565b5f808061017f60405190565b6040805160048152602481019091526020810180516001600160e01b0390811663313ce56760e01b179091529192505f9182916101bf918891906102d416565b5090925090506101ce83604052565b8180156101dc575060203d10155b80156101e9575060ff8111155b6101f4575f5f6101f8565b6001815b94509450505050915091565b600580546001600160a01b038381166001600160a01b0319831681179093556040519116919082907f8be0079c531659141344cd1fd0a4f28419497f9722a3daafe3b4186f6b6457e0905f90a35050565b6102618383835f6102f5565b6102cf5761027283835f60016102f5565b61029a57604051635274afe760e01b81526001600160a01b03841660048201526024016100f0565b6102a783838360016102f5565b6102cf57604051635274afe760e01b81526001600160a01b03841660048201526024016100f0565b505050565b5f5f5f60405f855160208701885afa92505f51915060205190509250925092565b60405163095ea7b360e01b5f8181526001600160a01b038616600452602485905291602083604481808b5af1925060015f5114831661034b57838315161561033f573d5f823e3d81fd5b5f873b113d1516831692505b60405250949350505050565b6001600160a01b038116811461036b575f5ffd5b50565b5f5f5f5f5f60a08688031215610382575f5ffd5b855161038d81610357565b602087015190955061039e81610357565b60408701519094506103af81610357565b60608701519093506103c081610357565b80925050608086015190509295509295909350565b634e487b7160e01b5f52604160045260245ffd5b600181811c908216806103fd57607f821691505b60208210810361041b57634e487b7160e01b5f52602260045260245ffd5b50919050565b601f8211156102cf57805f5260205f20601f840160051c810160208510156104465750805b601f840160051c820191505b81811015610465575f8155600101610452565b5050505050565b81516001600160401b03811115610485576104856103d5565b6104998161049384546103e9565b84610421565b6020601f8211600181146104cb575f83156104b45750848201515b5f19600385901b1c1916600184901b178455610465565b5f84815260208120601f198516915b828110156104fa57878501518255602094850194600190920191016104da565b508482101561051757868401515f19600387901b60f8161c191681555b50505050600190811b01905550565b60805160a05160c05160e05161010051611cdf6105b75f395f818161038c01528181610db50152610e0401525f8181610365015261105a01525f81816105d40152818161062a015281816106bb01528181610a0e01528181610b9401528181610c4001528181610f010152610fdc01525f61088301525f818161033c0152818161095401526111040152611cdf5ff3fe608060405234801561000f575f5ffd5b506004361061024a575f3560e01c80638da5cb5b11610140578063c63d75b6116100bf578063dd62ed3e11610084578063dd62ed3e14610522578063ddd5e1b21461055a578063e979b24c1461056d578063ec4ba55c146105cf578063ef8b30f7146104e0578063f2fde38b146105f6575f5ffd5b8063c63d75b6146103ae578063c6e6f592146104e0578063c916b521146104f3578063ce96cb77146104fc578063d905777e1461050f575f5ffd5b8063b3d7f6b911610105578063b3d7f6b91461047f578063b460af9414610492578063b6363cf2146104a0578063ba08765214610492578063bd930508146104cd575f5ffd5b80638da5cb5b1461042d57806394bf804d1461043e57806395d89b41146104515780639c82f2a414610459578063a9059cbb1461046c575f5ffd5b806338d52e0f116101cc578063558a729711610191578063558a7297146103c25780636e553f65146103d557806370a08231146103e8578063715018a6146104105780637d41c86e1461041a575f5ffd5b806338d52e0f1461033a5780633e413bee146103605780633fc8cef314610387578063402d267d146103ae5780634cdad506146102c7575f5ffd5b80630a28a477116102125780630a28a477146102c757806318160ddd146102da57806323b872dd146102e25780632b3297f9146102f5578063313ce56714610320575f5ffd5b806301e1d1141461024e57806301ffc9a71461026957806306fdde031461028c57806307a2d13a146102a1578063095ea7b3146102b4575b5f5ffd5b610256610609565b6040519081526020015b60405180910390f35b61027c6102773660046118d1565b610755565b6040519015158152602001610260565b61029461078b565b60405161026091906118f8565b6102566102af36600461192d565b61081b565b61027c6102c236600461195f565b610826565b6102566102d536600461192d565b61083d565b600254610256565b61027c6102f0366004611987565b610857565b600654610308906001600160a01b031681565b6040516001600160a01b039091168152602001610260565b61032861087c565b60405160ff9091168152602001610260565b7f0000000000000000000000000000000000000000000000000000000000000000610308565b6103087f000000000000000000000000000000000000000000000000000000000000000081565b6103087f000000000000000000000000000000000000000000000000000000000000000081565b6102566103bc3660046119c1565b505f1990565b61027c6103d03660046119da565b6108ac565b6102566103e3366004611a13565b61091b565b6102566103f63660046119c1565b6001600160a01b03165f9081526020819052604090205490565b610418610ad8565b005b610256610428366004611a3d565b610aeb565b6005546001600160a01b0316610308565b61025661044c366004611a13565b610d73565b610294610d8d565b6104186104673660046119c1565b610d9c565b61027c61047a36600461195f565b610e2f565b61025661048d36600461192d565b610e3c565b6102566102d5366004611a3d565b61027c6104ae366004611a76565b600760209081525f928352604080842090915290825290205460ff1681565b6104186104db36600461192d565b610e48565b6102566104ee36600461192d565b610e55565b610256600a5481565b61025661050a3660046119c1565b610e60565b61025661051d3660046119c1565b610e69565b610256610530366004611a76565b6001600160a01b039182165f90815260016020908152604080832093909416825291909152205490565b610256610568366004611a13565b610e86565b6105a861057b36600461192d565b60096020525f90815260409020805460018201546002909201546001600160a01b03909116919060ff1683565b604080516001600160a01b0390941684526020840192909252151590820152606001610260565b6103087f000000000000000000000000000000000000000000000000000000000000000081565b6104186106043660046119c1565b611134565b6040516370a0823160e01b81523060048201525f9081906001600160a01b037f000000000000000000000000000000000000000000000000000000000000000016906370a0823190602401602060405180830381865afa15801561066f573d5f5f3e3d5ffd5b505050506040513d601f19601f820116820180604052508101906106939190611a9e565b9050805f036106a3575f91505090565b6040516303d1689d60e11b8152600481018290525f907f00000000000000000000000000000000000000000000000000000000000000006001600160a01b0316906307a2d13a90602401602060405180830381865afa158015610708573d5f5f3e3d5ffd5b505050506040513d601f19601f8201168201806040525081019061072c9190611a9e565b600a54909150610744670de0b6b3a764000083611ac9565b61074e9190611af4565b9250505090565b5f631883ba3960e21b6001600160e01b031983161480610785575063e3bc4e6560e01b6001600160e01b03198316145b92915050565b60606003805461079a90611b07565b80601f01602080910402602001604051908101604052809291908181526020018280546107c690611b07565b80156108115780601f106107e857610100808354040283529160200191610811565b820191905f5260205f20905b8154815290600101906020018083116107f457829003601f168201915b5050505050905090565b5f610785825f611173565b5f336108338185856111ab565b5060019392505050565b5f604051633cbf923560e11b815260040160405180910390fd5b5f336108648582856111bd565b61086f858585611239565b60019150505b9392505050565b5f6108a7817f0000000000000000000000000000000000000000000000000000000000000000611b3f565b905090565b335f8181526007602090815260408083206001600160a01b038716808552908352818420805460ff191687151590811790915591519182529293917fceb576d9f15e4e200fdb5096d64d5dfd667e16def20c1eefd14256d8e3faa267910160405180910390a350600192915050565b5f825f0361093c57604051631f2a200560e01b815260040160405180910390fd5b61094583610e55565b905061097c6001600160a01b037f000000000000000000000000000000000000000000000000000000000000000016333086611296565b60065460405163666e3ebb60e11b8152600481018590525f60248201819052916001600160a01b03169063ccdc7d76906044016020604051808303815f875af11580156109cb573d5f5f3e3d5ffd5b505050506040513d601f19601f820116820180604052508101906109ef9190611a9e565b604051636e553f6560e01b8152600481018290523060248201529091507f00000000000000000000000000000000000000000000000000000000000000006001600160a01b031690636e553f65906044016020604051808303815f875af1158015610a5c573d5f5f3e3d5ffd5b505050506040513d601f19601f82011682018060405250810190610a809190611a9e565b50610a8b83836112cc565b60408051858152602081018490526001600160a01b0385169133917fdcbc1c05240f31ff3ad067ef1ee35ce4997762752e3a095284754544f4c709d7910160405180910390a35092915050565b610ae0611304565b610ae95f611331565b565b5f835f03610b0c57604051631f2a200560e01b815260040160405180910390fd5b6001600160a01b0382163314801590610b4857506001600160a01b0382165f90815260076020908152604080832033845290915290205460ff16155b15610b665760405163ea8e4eb560e01b815260040160405180910390fd5b5f610b7060025490565b6040516370a0823160e01b81523060048201529091505f9082906001600160a01b037f000000000000000000000000000000000000000000000000000000000000000016906370a0823190602401602060405180830381865afa158015610bd9573d5f5f3e3d5ffd5b505050506040513d601f19601f82011682018060405250810190610bfd9190611a9e565b610c079088611ac9565b610c119190611af4565b9050610c1d8487611382565b604051633ea0e43760e11b815260048101829052306024820181905260448201527f00000000000000000000000000000000000000000000000000000000000000006001600160a01b031690637d41c86e906064016020604051808303815f875af1158015610c8e573d5f5f3e3d5ffd5b505050506040513d601f19601f82011682018060405250810190610cb29190611a9e565b5060088054905f610cc283611b58565b90915550604080516060810182526001600160a01b0388811680835260208084018781525f8587018181528882526009845290879020955186546001600160a01b03191690861617865590516001860155516002909401805460ff19169415159490941790935583513381529283018b905293965086939088169290917f1fdc681a13d8c5da54e301c7ce6542dcde4581e4725043fdab2db12ddc574506910160405180910390a450509392505050565b5f6040516354327fab60e01b815260040160405180910390fd5b60606004805461079a90611b07565b610da4611304565b600654610dde906001600160a01b037f0000000000000000000000000000000000000000000000000000000000000000811691165f6113b6565b600680546001600160a01b0319166001600160a01b0383811691909117909155610e2c907f000000000000000000000000000000000000000000000000000000000000000016825f196113b6565b50565b5f33610833818585611239565b5f610785826001611173565b610e50611304565b600a55565b5f610785825f611430565b5f6107856102d5835b6001600160a01b0381165f90815260208190526040812054610785565b5f82815260096020526040812080546001600160a01b03163314610ebd5760405163ea8e4eb560e01b815260040160405180910390fd5b600281015460ff1615610ee357604051630c8d9eab60e31b815260040160405180910390fd5b60405163eaed1d0760e01b81525f60048201819052306024830152907f00000000000000000000000000000000000000000000000000000000000000006001600160a01b03169063eaed1d0790604401602060405180830381865afa158015610f4e573d5f5f3e3d5ffd5b505050506040513d601f19601f82011682018060405250810190610f729190611a9e565b90508160010154811015610f9957604051636c09fbc960e11b815260040160405180910390fd5b60028201805460ff19166001908117909155820154604051635d043b2960e11b81526004810191909152306024820181905260448201525f906001600160a01b037f0000000000000000000000000000000000000000000000000000000000000000169063ba087652906064016020604051808303815f875af1158015611022573d5f5f3e3d5ffd5b505050506040513d601f19601f820116820180604052508101906110469190611a9e565b600654909150611083906001600160a01b037f000000000000000000000000000000000000000000000000000000000000000081169116836113b6565b60065460405163eebba33360e01b8152600481018390525f60248201526001600160a01b039091169063eebba333906044016020604051808303815f875af11580156110d1573d5f5f3e3d5ffd5b505050506040513d601f19601f820116820180604052508101906110f59190611a9e565b935061112b6001600160a01b037f000000000000000000000000000000000000000000000000000000000000000016868661145f565b50505092915050565b61113c611304565b6001600160a01b03811661116a57604051631e4fbdf760e01b81525f60048201526024015b60405180910390fd5b610e2c81611331565b5f61087561117f610609565b61118a906001611b70565b6111955f600a611c66565b6002546111a29190611b70565b8591908561146c565b6111b883838360016114b7565b505050565b6001600160a01b038381165f908152600160209081526040808320938616835292905220545f19811015611233578181101561122557604051637dc7a0d960e11b81526001600160a01b03841660048201526024810182905260448101839052606401611161565b61123384848484035f6114b7565b50505050565b6001600160a01b03831661126257604051634b637e8f60e11b81525f6004820152602401611161565b6001600160a01b03821661128b5760405163ec442f0560e01b81525f6004820152602401611161565b6111b8838383611589565b6112a48484848460016116af565b61123357604051635274afe760e01b81526001600160a01b0385166004820152602401611161565b6001600160a01b0382166112f55760405163ec442f0560e01b81525f6004820152602401611161565b6113005f8383611589565b5050565b6005546001600160a01b03163314610ae95760405163118cdaa760e01b8152336004820152602401611161565b600580546001600160a01b038381166001600160a01b0319831681179093556040519116919082907f8be0079c531659141344cd1fd0a4f28419497f9722a3daafe3b4186f6b6457e0905f90a35050565b6001600160a01b0382166113ab57604051634b637e8f60e11b81525f6004820152602401611161565b611300825f83611589565b6113c28383835f61171c565b6111b8576113d383835f600161171c565b6113fb57604051635274afe760e01b81526001600160a01b0384166004820152602401611161565b611408838383600161171c565b6111b857604051635274afe760e01b81526001600160a01b0384166004820152602401611161565b5f61087561143f82600a611c66565b60025461144c9190611b70565b611454610609565b6111a2906001611b70565b611408838383600161177e565b5f611499611479836117c8565b801561149457505f848061148f5761148f611ae0565b868809115b151590565b6114a48686866117f4565b6114ae9190611b70565b95945050505050565b6001600160a01b0384166114e05760405163e602df0560e01b81525f6004820152602401611161565b6001600160a01b03831661150957604051634a1406b160e11b81525f6004820152602401611161565b6001600160a01b038085165f908152600160209081526040808320938716835292905220829055801561123357826001600160a01b0316846001600160a01b03167f8c5be1e5ebec7d5bd14f71427d1e84f3dd0314c0f7b2291e5b200ac8c7c3b9258460405161157b91815260200190565b60405180910390a350505050565b6001600160a01b0383166115b3578060025f8282546115a89190611b70565b909155506116239050565b6001600160a01b0383165f90815260208190526040902054818110156116055760405163391434e360e21b81526001600160a01b03851660048201526024810182905260448101839052606401611161565b6001600160a01b0384165f9081526020819052604090209082900390555b6001600160a01b03821661163f5760028054829003905561165d565b6001600160a01b0382165f9081526020819052604090208054820190555b816001600160a01b0316836001600160a01b03167fddf252ad1be2c89b69c2b068fc378daa952ba7f163c4a11628f55a4df523b3ef836040516116a291815260200190565b60405180910390a3505050565b6040516323b872dd60e01b5f8181526001600160a01b038781166004528616602452604485905291602083606481808c5af1925060015f5114831661170b5783831516156116ff573d5f823e3d81fd5b5f883b113d1516831692505b604052505f60605295945050505050565b60405163095ea7b360e01b5f8181526001600160a01b038616600452602485905291602083604481808b5af1925060015f51148316611772578383151615611766573d5f823e3d81fd5b5f873b113d1516831692505b60405250949350505050565b60405163a9059cbb60e01b5f8181526001600160a01b038616600452602485905291602083604481808b5af1925060015f51148316611772578383151615611766573d5f823e3d81fd5b5f60028260038111156117dd576117dd611c74565b6117e79190611c88565b60ff166001149050919050565b5f5f5f61180186866118a4565b91509150815f036118255783818161181b5761181b611ae0565b0492505050610875565b81841161183c5761183c60038515026011186118c0565b5f848688095f868103871696879004966002600389028118808a02820302808a02820302808a02820302808a02820302808a02820302808a02909103029181900381900460010185841190960395909502919093039390930492909217029150509392505050565b5f805f1983850993909202808410938190039390930393915050565b634e487b715f52806020526024601cfd5b5f602082840312156118e1575f5ffd5b81356001600160e01b031981168114610875575f5ffd5b602081525f82518060208401528060208501604085015e5f604082850101526040601f19601f83011684010191505092915050565b5f6020828403121561193d575f5ffd5b5035919050565b80356001600160a01b038116811461195a575f5ffd5b919050565b5f5f60408385031215611970575f5ffd5b61197983611944565b946020939093013593505050565b5f5f5f60608486031215611999575f5ffd5b6119a284611944565b92506119b060208501611944565b929592945050506040919091013590565b5f602082840312156119d1575f5ffd5b61087582611944565b5f5f604083850312156119eb575f5ffd5b6119f483611944565b915060208301358015158114611a08575f5ffd5b809150509250929050565b5f5f60408385031215611a24575f5ffd5b82359150611a3460208401611944565b90509250929050565b5f5f5f60608486031215611a4f575f5ffd5b83359250611a5f60208501611944565b9150611a6d60408501611944565b90509250925092565b5f5f60408385031215611a87575f5ffd5b611a9083611944565b9150611a3460208401611944565b5f60208284031215611aae575f5ffd5b5051919050565b634e487b7160e01b5f52601160045260245ffd5b808202811582820484141761078557610785611ab5565b634e487b7160e01b5f52601260045260245ffd5b5f82611b0257611b02611ae0565b500490565b600181811c90821680611b1b57607f821691505b602082108103611b3957634e487b7160e01b5f52602260045260245ffd5b50919050565b60ff818116838216019081111561078557610785611ab5565b5f60018201611b6957611b69611ab5565b5060010190565b8082018082111561078557610785611ab5565b6001815b6001841115611bbe57808504811115611ba257611ba2611ab5565b6001841615611bb057908102905b60019390931c928002611b87565b935093915050565b5f82611bd457506001610785565b81611be057505f610785565b8160018114611bf65760028114611c0057611c1c565b6001915050610785565b60ff841115611c1157611c11611ab5565b50506001821b610785565b5060208310610133831016604e8410600b8410161715611c3f575081810a610785565b611c4b5f198484611b83565b805f1904821115611c5e57611c5e611ab5565b029392505050565b5f61087560ff841683611bc6565b634e487b7160e01b5f52602160045260245ffd5b5f60ff831680611c9a57611c9a611ae0565b8060ff8416069150509291505056fea26469706673582212201430747f065f18610deaa9e1f36255c8c112e47335bff4eb4854c5812fbe826664736f6c634300081c0033",
  "linkReferences": {},
  "deployedLinkReferences": {},
  "immutableReferences": {
    "1164": [
      {
        "length": 32,
        "start": 828
      },
      {
        "length": 32,
        "start": 2388
      },
      {
        "length": 32,
        "start": 4356
      }
    ],
    "1166": [
      {
        "length": 32,
        "start": 2179
      }
    ],
    "6404": [
      {
        "length": 32,
        "start": 1492
      },
      {
        "length": 32,
        "start": 1578
      },
      {
        "length": 32,
        "start": 1723
      },
      {
        "length": 32,
        "start": 2574
      },
      {
        "length": 32,
        "start": 2964
      },
      {
        "length": 32,
        "start": 3136
      },
      {
        "length": 32,
        "start": 3841
      },
      {
        "length": 32,
        "start": 4060
      }
    ],
    "6410": [
      {
        "length": 32,
        "start": 869
      },
      {
        "length": 32,
        "start": 4186
      }
    ],
    "6413": [
      {
        "length": 32,
        "start": 908
      },
      {
        "length": 32,
        "start": 3509
      },
      {
        "length": 32,
        "start": 3588
      }
    ]
  },
  "inputSourceName": "project/contracts/LSE.sol",
  "buildInfoId": "solc-0_8_28-6da72c238d212f3ebf8e2afa39e64a32e77cbc6c"
}