{
  "_format": "hh3-artifact-1",
  "contractName": "MockSwapper",
  "sourceName": "contracts/mocks/MockSwapper.sol",
  "abi": [
    {
      "inputs": [
        {
          "internalType": "address",
          "name": "_weth",
          "type": "address"
        },
        {
          "internalType": "address",
          "name": "_usdc",
          "type": "address"
        }
      ],
      "stateMutability": "nonpayable",
      "type": "constructor"
    },
    {
      "inputs": [
        {
          "internalType": "address",
          "name": "token",
          "type": "address"
        }
      ],
      "name": "SafeERC20FailedOperation",
      "type": "error"
    },
    {
      "inputs": [],
      "name": "USDC_DECIMALS",
      "outputs": [
        {
          "internalType": "uint256",
          "name": "",
          "type": "uint256"
        }
      ],
      "stateMutability": "view",
      "type": "function"
    },
    {
      "inputs": [],
      "name": "WETH_DECIMALS",
      "outputs": [
        {
          "internalType": "uint256",
          "name": "",
          "type": "uint256"
        }
      ],
      "stateMutability": "view",
      "type": "function"
    },
    {
      "inputs": [],
      "name": "WETH_TO_USDC_RATE",
      "outputs": [
        {
          "internalType": "uint256",
          "name": "",
          "type": "uint256"
        }
      ],
      "stateMutability": "view",
      "type": "function"
    },
    {
      "inputs": [
        {
          "internalType": "uint256",
          "name": "amountIn",
          "type": "uint256"
        },
        {
          "internalType": "uint256",
          "name": "minAmountOut",
          "type": "uint256"
        }
      ],
      "name": "swapUSDCtoWETH",
      "outputs": [
        {
          "internalType": "uint256",
          "name": "amountOut",
          "type": "uint256"
        }
      ],
      "stateMutability": "nonpayable",
      "type": "function"
    },
    {
      "inputs": [
        {
          "internalType": "uint256",
          "name": "amountIn",
          "type": "uint256"
        },
        {
          "internalType": "uint256",
          "name": "minAmountOut",
          "type": "uint256"
        }
      ],
      "name": "swapWETHtoUSDC",
      "outputs": [
        {
          "internalType": "uint256",
          "name": "amountOut",
          "type": "uint256"
        }
      ],
      "stateMutability": "nonpayable",
      "type": "function"
    },
    {
      "inputs": [],
      "name": "usdc",
      "outputs": [
        {
          "internalType": "contract IERC20",
          "name": "",
          "type": "address"
        }
      ],
      "stateMutability": "view",
      "type": "function"
    },
    {
      "inputs": [],
      "name": "weth",
      "outputs": [
        {
          "internalType": "contract IERC20",
          "name": "",
          "type": "address"
        }
      ],
      "stateMutability": "view",
      "type": "function"
    }
  ],
  "bytecode": "0x60c060405234801561000f575f5ffd5b506040516105b33803806105b383398101604081905261002e91610060565b6001600160a01b039182166080521660a052610091565b80516001600160a01b038116811461005b575f5ffd5b919050565b5f5f60408385031215610071575f5ffd5b61007a83610045565b915061008860208401610045565b90509250929050565b60805160a0516104e76100cc5f395f81816083015281816101fe01526102ae01525f818160c7015281816101c901526102e301526104e75ff3fe608060405234801561000f575f5ffd5b506004361061007a575f3560e01c8063c1419def11610058578063c1419def14610100578063ccdc7d761461010a578063d08aef7c1461011d578063eebba3331461012c575f5ffd5b80633e413bee1461007e5780633fc8cef3146100c25780634039e687146100e9575b5f5ffd5b6100a57f000000000000000000000000000000000000000000000000000000000000000081565b6040516001600160a01b0390911681526020015b60405180910390f35b6100a57f000000000000000000000000000000000000000000000000000000000000000081565b6100f26107d081565b6040519081526020016100b9565b6100f2620f424081565b6100f261011836600461044f565b61013f565b6100f2670de0b6b3a764000081565b6100f261013a36600461044f565b61022b565b5f670de0b6b3a7640000620f42406101596107d08661046f565b610163919061046f565b61016d9190610492565b9050818110156101bc5760405162461bcd60e51b81526020600482015260156024820152744d6f636b537761707065723a20736c69707061676560581b60448201526064015b60405180910390fd5b6101f16001600160a01b037f00000000000000000000000000000000000000000000000000000000000000001633308661030a565b6102256001600160a01b037f0000000000000000000000000000000000000000000000000000000000000000163383610346565b92915050565b5f61023b620f42406107d061046f565b61024d670de0b6b3a76400008561046f565b6102579190610492565b9050818110156102a15760405162461bcd60e51b81526020600482015260156024820152744d6f636b537761707065723a20736c69707061676560581b60448201526064016101b3565b6102d66001600160a01b037f00000000000000000000000000000000000000000000000000000000000000001633308661030a565b6102256001600160a01b037f0000000000000000000000000000000000000000000000000000000000000000163383610346565b610318848484846001610380565b61034057604051635274afe760e01b81526001600160a01b03851660048201526024016101b3565b50505050565b61035383838360016103ed565b61037b57604051635274afe760e01b81526001600160a01b03841660048201526024016101b3565b505050565b6040516323b872dd60e01b5f8181526001600160a01b038781166004528616602452604485905291602083606481808c5af1925060015f511483166103dc5783831516156103d0573d5f823e3d81fd5b5f883b113d1516831692505b604052505f60605295945050505050565b60405163a9059cbb60e01b5f8181526001600160a01b038616600452602485905291602083604481808b5af1925060015f51148316610443578383151615610437573d5f823e3d81fd5b5f873b113d1516831692505b60405250949350505050565b5f5f60408385031215610460575f5ffd5b50508035926020909101359150565b808202811582820484141761022557634e487b7160e01b5f52601160045260245ffd5b5f826104ac57634e487b7160e01b5f52601260045260245ffd5b50049056fea2646970667358221220230ada968d6586a23f927c924b8dd42259c8277e88d456aed4506600f15c450364736f6c634300081c0033",
  "linkReferences": {},
  "deployedLinkReferences": {},
  "immutableReferences": {
    "676": [
      {
        "length": 32,
        "start": 199
      },
      {
        "length": 32,
        "start": 457
      },
      {
        "length": 32,
        "start": 739
      }
    ],
    "679": [
      {
        "length": 32,
        "start": 131
      },
      {
        "length": 32,
        "start": 510
      },
      {
        "length": 32,
        "start": 686
      }
    ]
  },
  "inputSourceName": "project/contracts/mocks/MockSwapper.sol",
  "buildInfoId": "solc-0_8_28-751acf290d0f4e43864ecea09498b0ed22868495"
}